{
  "contractName": "GameToken",
  "abi": [
    {
      "inputs": [
        {
          "internalType": "uint256",
          "name": "_initSupply",
          "type": "uint256"
        }
      ],
      "payable": false,
      "stateMutability": "nonpayable",
      "type": "constructor"
    },
    {
      "anonymous": false,
      "inputs": [
        {
          "indexed": true,
          "internalType": "address",
          "name": "_from",
          "type": "address"
        },
        {
          "indexed": true,
          "internalType": "address",
          "name": "_to",
          "type": "address"
        },
        {
          "indexed": false,
          "internalType": "uint256",
          "name": "_amount",
          "type": "uint256"
        }
      ],
      "name": "Transfer",
      "type": "event"
    },
    {
      "constant": true,
      "inputs": [
        {
          "internalType": "address",
          "name": "",
          "type": "address"
        }
      ],
      "name": "balanceOf",
      "outputs": [
        {
          "internalType": "uint256",
          "name": "",
          "type": "uint256"
        }
      ],
      "payable": false,
      "stateMutability": "view",
      "type": "function"
    },
    {
      "constant": true,
      "inputs": [],
      "name": "totalSupply",
      "outputs": [
        {
          "internalType": "uint256",
          "name": "",
          "type": "uint256"
        }
      ],
      "payable": false,
      "stateMutability": "view",
      "type": "function"
    },
    {
      "constant": false,
      "inputs": [
        {
          "internalType": "address",
          "name": "_to",
          "type": "address"
        },
        {
          "internalType": "uint256",
          "name": "_amount",
          "type": "uint256"
        }
      ],
      "name": "transfer",
      "outputs": [
        {
          "internalType": "bool",
          "name": "",
          "type": "bool"
        }
      ],
      "payable": false,
      "stateMutability": "nonpayable",
      "type": "function"
    },
    {
      "constant": false,
      "inputs": [
        {
          "internalType": "address",
          "name": "_requester",
          "type": "address"
        }
      ],
      "name": "canPlay",
      "outputs": [
        {
          "internalType": "bool",
          "name": "",
          "type": "bool"
        }
      ],
      "payable": false,
      "stateMutability": "nonpayable",
      "type": "function"
    }
  ],
  "bytecode": "0x608060405234801561001057600080fd5b506040516104d63803806104d68339818101604052602081101561003357600080fd5b810190808051906020019092919050505033600160006101000a81548173ffffffffffffffffffffffffffffffffffffffff021916908373ffffffffffffffffffffffffffffffffffffffff1602179055508060026000600160009054906101000a900473ffffffffffffffffffffffffffffffffffffffff1673ffffffffffffffffffffffffffffffffffffffff1673ffffffffffffffffffffffffffffffffffffffff1681526020019081526020016000208190555080600081905550506103d4806101026000396000f3fe608060405234801561001057600080fd5b506004361061004c5760003560e01c80630823d5f31461005157806318160ddd146100ad57806370a08231146100cb578063a9059cbb14610123575b600080fd5b6100936004803603602081101561006757600080fd5b81019080803573ffffffffffffffffffffffffffffffffffffffff169060200190929190505050610189565b604051808215151515815260200191505060405180910390f35b6100b56101e6565b6040518082815260200191505060405180910390f35b61010d600480360360208110156100e157600080fd5b81019080803573ffffffffffffffffffffffffffffffffffffffff1690602001909291905050506101ec565b6040518082815260200191505060405180910390f35b61016f6004803603604081101561013957600080fd5b81019080803573ffffffffffffffffffffffffffffffffffffffff16906020019092919080359060200190929190505050610204565b604051808215151515815260200191505060405180910390f35b60006001600260008473ffffffffffffffffffffffffffffffffffffffff1673ffffffffffffffffffffffffffffffffffffffff1681526020019081526020016000205410156101dc57600090506101e1565b600190505b919050565b60005481565b60026020528060005260406000206000915090505481565b60008160026000600160009054906101000a900473ffffffffffffffffffffffffffffffffffffffff1673ffffffffffffffffffffffffffffffffffffffff1673ffffffffffffffffffffffffffffffffffffffff16815260200190815260200160002054101561027457600080fd5b8160026000600160009054906101000a900473ffffffffffffffffffffffffffffffffffffffff1673ffffffffffffffffffffffffffffffffffffffff1673ffffffffffffffffffffffffffffffffffffffff1681526020019081526020016000206000828254039250508190555081600260008573ffffffffffffffffffffffffffffffffffffffff1673ffffffffffffffffffffffffffffffffffffffff168152602001908152602001600020600082825401925050819055508273ffffffffffffffffffffffffffffffffffffffff163373ffffffffffffffffffffffffffffffffffffffff167fddf252ad1be2c89b69c2b068fc378daa952ba7f163c4a11628f55a4df523b3ef846040518082815260200191505060405180910390a3600190509291505056fea265627a7a72315820071bb1036bdacb997875ac5a29e545b9567b1f11e3973dbd53403de9ec6b9a0264736f6c63430005100032",
  "source": "pragma solidity ^0.5.0;\n\nimport \"./ERC721Full.sol\";\n\n// PrizeToken inherits from ERC721Full which is the ERC721 standard\ncontract GameToken {\n\n    uint256 public totalSupply;\n    address master;\n\n    event Transfer(\n        address indexed _from,\n        address indexed _to,\n        uint256 _amount\n    );\n\n    mapping(address => uint256) public balanceOf;\n\n\n    constructor(uint256 _initSupply) public {\n        master = msg.sender;\n        balanceOf[master] = _initSupply;\n        totalSupply = _initSupply;\n    }\n\n    // transfers tokens out from the master wallet\n    function transfer(address _to, uint256 _amount) public returns(bool) {\n        require(balanceOf[master] >= _amount);\n\n        balanceOf[master] -= _amount;\n\n        balanceOf[_to] += _amount;\n\n        emit Transfer(msg.sender, _to, _amount);\n\n        return true;\n\n    }\n\n    function canPlay(address _requester) public returns (bool) {\n        if (balanceOf[_requester] < 1) {\n            return false;\n        }\n        return true;\n    }\n\n    // things like swap\n\n    // canPlay\n\n\n    // useToken (use some of your balance)\n\n\n\n\n}\n",
  "sourcePath": "/Users/dirksmac/Desktop/University of Manitoba/4th Year/Summer/COMP 3010 (July)/darcade/src/contracts/GameToken.sol",
  "compiler": {
    "name": "solc",
    "version": "0.5.16+commit.9c3226ce.Emscripten.clang"
  },
  "schemaVersion": "3.4.2",
  "updatedAt": "2021-08-12T12:17:19.728Z",
  "networkType": "ethereum",
  "devdoc": {
    "methods": {}
  },
  "userdoc": {
    "methods": {}
  }
}